:020000040800F2
:10000000E0210020AD0200087530000899080008C2
:1000100073300008A50B00084542000800000000EE
:10002000000000000000000000000000D1350008C2
:10003000B10C00080000000077300008D53500083A
:10004000C7020008C7020008C7020008C70200086C
:10005000C7020008C7020008C7020008C70200085C
:10006000C7020008C7020008C7020008C70200084C
:10007000C7020008C7020008C7020008C70200083C
:10008000C7020008C7020008C7020008C70200082C
:10009000C7020008C7020008C7020008B30C000826
:1000A000C7020008C7020008C7020008C70200080C
:1000B00031380008C7020008C7020008C70200085C
:1000C000C7020008C7020008C7020008C7020008EC
:1000D000C7020008ED3F0008C7020008F93F00080A
:1000E000C7020008C702000800000000C70200089D
:1000F000C7020008C7020008C7020008C7020008BC
:10010000C7020008C7020008C7020008C7020008AB
:10011000C7020008C7020008C7020008C70200089B
:10012000C7020008C7020008C7020008C70200088B
:10013000C7020008C7020008C7020008C70200087B
:1001400000000000000000000000000000000000AF
:10015000C7020008C7020008C7020008C70200085B
:10016000C7020008C7020008C7020008C70200084B
:10017000C7020008C7020008C7020008000000000C
:10018000C7020008C7020008C7020008C70200082B
:10019000C7020008C7020008C7020008C70200081B
:1001A000C7020008C7020008C7020008C70200080B
:1001B000C7020008C7020008C7020008C7020008FB
:1001C000C7020008C7020008C7020008C7020008EB
:1001D000C7020008C7020008C7020008C7020008DB
:1001E000C7020008C7020008C7020008C7020008CB
:1001F000C7020008C7020008C7020008C7020008BB
:10020000C7020008C7020008C7020008C7020008AA
:10021000C7020008C7020008C7020008C70200089A
:10022000C7020008C7020008C7020008000000005B
:10023000C7020008C702000800000000C70200084B
:10024000C7020008C7020008C7020008C70200086A
:10025000C7020008C7020008C7020008C70200085A
:10026000C7020008C7020008C7020008C70200084A
:10027000C7020008C7020008C7020008000000000B
:10028000C7020008C7020008C702000800000000FB
:1002900000000000C7020008DFF80CD000F08CFA64
:1002A0000048004745520008E021002006488047EA
:1002B00006480047FEE7FEE7FEE7FEE7FEE7FEE74B
:1002C000FEE7FEE7FEE7FEE74D370008990200086B
:1002D0002DE9F05F0546002092469B46884606467B
:1002E000814640241BE0284641464746224600F00E
:1002F0009AF853465A46C01A914110D311461846EF
:10030000224600F047F82D1A67EB01084F462246B7
:100310000120002100F03EF817EB00094E41201E9D
:10032000A4F10104DFDC484631462A464346BDE8D5
:10033000F09F2DE9F0410024061B254671F10006CF
:1003400005DA01240027D0EB070067EB0101161E38
:1003500073F1000605DA0027D2EB0702012567EBEF
:100360000303FFF7B5FF86460E4617469C46AC4290
:1003700004D00025D0EB050E65EB010624B100206A
:10038000D2EB000760EB030C704631463A466346F9
:10039000BDE8F081202A04DB203A00FA02F10020B7
:1003A00070479140C2F1200320FA03F319439040B3
:1003B0007047202A06DBCB17203A41FA02F043EAC5
:1003C000E07306E041FA02F3D040C2F1200291400E
:1003D000084319467047D2B201E000F8012B491ECC
:1003E000FBD270470022F6E710B513460A460446D2
:1003F0001946FFF7F0FF204610BD30B50B46014609
:1004000000202022012409E021FA02F59D4205D3B3
:1004100003FA02F5491B04FA02F52844151EA2F15D
:100420000102F1DC30BD202A04DB203A21FA02F07F
:100430000021704721FA02F3D040C2F1200291401E
:100440000843194670472DE9FE4F804681EA0300B4
:10045000C00F0C46009021F0004123F00045B8EB9E
:100460000200A94105D24046214690461C460B4653
:10047000024623F00040104347D0270DC7F30A007F
:10048000C3F30A510290401A019040286BDAC3F37B
:10049000130040F4801B0098924620B10023D2EB59
:1004A000030A63EB0B0B01985946C0F1400250461A
:1004B000FFF770FF06460D4650465946019AFFF772
:1004C00078FF10EB08006141002487EA115284EAAA
:1004D000E7731A4340D0009A62B3019A012A4FEAA7
:1004E000075215DC001B61EB02014FF0004202EAEB
:1004F0000752CDE90042001C41F5801132462B46DF
:1005000000F07BF903B0BDE8F08F40462146F9E7E3
:10051000001B61EB0201001C41F5801300185B41D8
:100520002018A2F5001747EB030140EAD570B61971
:100530006D4111E06D084FEA360645EAC0754FEA95
:100540000752001B61EB0201001C41F580114908B4
:100550004FEA30000019514132462B4603B0BDE846
:10056000F04F00F03BB90098012240000023D0EB8F
:10057000020263EBE073009821464FEAE074B8EBA7
:10058000000061EB0401E9E783F000435BE781F0E1
:10059000004158E72DE9FE4F81EA030404F00044CE
:1005A00021F0004100944FF0000B23F0004350EA8B
:1005B00001045ED052EA03045BD0C3F30A54C1F3D2
:1005C0000A552C44A4F2F3340194A0FB0254C1F365
:1005D000130141F48011C3F3130343F4801301FBAF
:1005E000024400FB034E840A970A44EA815447EA16
:1005F0008357A4FB076802958D0A05FB07854FEA20
:10060000932C04FB0C542705029D4FEA065847EA39
:100610001637B5EB08056EEB070C870E920E47EA0E
:10062000811742EA8312A7FB0201B6EB0B0164EBD0
:1006300000042B0D43EA0C335E1844EB1C50DA46E1
:100640005146E7FB0201C5F313044FEA0B3343EABB
:1006500014534FEA0432019C43EA0603A4F10C044C
:100660000294009CCDE900B400F0C7F803B0BDE8E7
:10067000F08F00200146F9E72DE9F04D81EA0304EF
:1006800004F0004B21F0004514464FF0000A23F01F
:10069000004150EA050220D054EA01021DD0C5F302
:1006A0000A570246C5F31303C1F31300C1F30A56F8
:1006B00040F4801543F48013A7EB0608101BD646C0
:1006C00008F2FD3873EB050002D308F1010801E0E0
:1006D00092185B41B8F1000F03DA00200146BDE833
:1006E000F08D00204FF48011064684460EE0171B63
:1006F00073EB050705D3121B63EB050306434CEAB6
:10070000010C49084FEA300092185B4150EA01079A
:10071000EDD152EA030012D082EA040083EA050117
:10072000084305D0101BAB4106D20122002306E08E
:1007300000224FF0004302E06FF0010253101AEB69
:1007400006004CEB085110EB0A0041EB0B01BDE831
:10075000F04D00F043B8C1F30A52C1F3130140F267
:10076000FF3341F480119A4202DA002001467047BB
:1007700040F233439A42A2F2334202DC5242FFF784
:1007800052BEFFF707BE000030B5041E71F1000431
:1007900004DB4FF00044404264EB0101141E73F18E
:1007A000000405DB1C464FF00043524263EB040398
:1007B000994208BF904230BD064C074D06E0E06804
:1007C00040F0010394E8070098471034AC42F6D398
:1007D000FFF766FD045400082454000810B5141EE9
:1007E00073F1000408DA401C41F1000192185B41EA
:1007F0001A4301D120F0010010BD2DE9F04D9246C1
:100800009B4611B1B1FA81F202E0B0FA80F22032D7
:100810009046FFF7BFFD04460F4640EA0A0041EA52
:100820000B0153465A46084313D0114653EA0100C0
:1008300019D0C8F140025046FFF7F5FD05460E46B7
:10084000504659464246FFF7A5FD084305D0012012
:1008500004E020463946BDE8F08D0020054346EA15
:10086000E0762C4337430A986305E40AA0EB0800BE
:100870000022FD0A44EA47540A3002D5002001460E
:10088000E9E7010510196941DDE9084500196941E9
:10089000BDE8F04DA2E700001EF0040F0CBFEFF31F
:1008A0000880EFF3098002F029BA00002DE9F04139
:1008B00005460C4616480570447000F027F900F014
:1008C000A9F800F027F906274FF008086806050E7A
:1008D0001048045D4FF400000F4E3060502000F0CF
:1008E000ABF8032000F0A8F8384600F0A5F8404621
:1008F00000F0A2F8284600F09FF8204600F09CF88F
:1009000080203060BDE8F041322004F053B900008F
:100910007411002080530008180802580A2004F0BF
:1009200049B9002000BF401C80B21E28FAD370478E
:1009300010B5174C94F8240000F0ACF8052004F032
:1009400039F9FC2000F00CF9052004F033F90020FF
:1009500000F006F9192004F02DF994F8240098B15C
:1009600000F018F894F82410491E04EB8101486047
:1009700094F82400401CC0B284F82400082802D354
:10098000002084F8240010BD00F004F82062EFE796
:100990007411002070B50D4D4FF400002860012047
:1009A00000F04AF8FFF7BAFF00F012F8040400F074
:1009B0000FF804EB002400F00BF82044802129609C
:1009C000010201D5A0F1807070BD00001808025826
:1009D0002DE9F0410024FFF7A4FF00250C4E10275D
:1009E0004FF48018B761FFF79CFF6006040EC6F84D
:1009F00018803069800601D5641CE4B2FFF791FFCE
:100A00006D1CEDB2082DEDD32046BDE8F08100004D
:100A10000000025810B5074C4FF40020206005205C
:100A200004F0C8F808202060BDE81040052004F05C
:100A3000C1B80000180802582DE9F05F0546FFF71D
:100A400070FFFFF76EFF0024104E114F4FF48068C7
:100A50004FF080694FF0100A4FF4801B280602D532
:100A6000C6F8008001E0C6F80090C7F818A0FFF7AC
:100A700058FF6806050EC7F818B0FFF752FF641C50
:100A8000E4B2082CEAD3BDE8F09F00001818025821
:100A900000000258072806D8082141EA0010C1B218
:100AA000012000F069B8704710B586B0134801689E
:100AB00041F004010160006800F00400009010485B
:100AC0000290002403944020019001A90D4800F0F9
:100AD000A5F900220221172000F060FB172000F08A
:100AE0004FFB094981F82440002001EB800254604B
:100AF000401CC0B20828F8D306B010BDE04402582C
:100B0000000021110008025874110020172000F085
:100B100026BB00000020074A074913685B0602D580
:100B2000401C8842F9D3884202D304A003F08CBB56
:100B300070470000100802580084D7174144533111
:100B40003235365F5761697444524459282920541C
:100B5000696D65204F7574202E2E2E0D0A00000041
:100B600010B5044C4FF400012160FFF765FF8020B1
:100B7000206010BD1808025870B50D46084C4FF49F
:100B80000002226040F05000FFF756FF0020FFF700
:100B900053FF2846FFF750FF8020206070BD000003
:100BA00018080258FEE70000F0B5204E30688103B7
:100BB0004FF0000011D4BFF34F8FBFF36F8F1C496C
:100BC0000860BFF34F8FBFF36F8F316841F400317E
:100BD0003160BFF34F8FBFF36F8F3168C90324D4E7
:100BE000124970310860BFF34F8F081F0068C0F3CF
:100BF0004E310F4A43F6FF771032C0F3C90528463D
:100C000007EA411343EA80741460401E441CF9D182
:100C1000491E481CF3D1BFF34F8F306840F4803039
:100C20003060BFF34F8FBFF36F8FF0BD14ED00E066
:100C300050EF00E010B5002814D0012814D002288D
:100C400014D0032814D0042814D0052814D0062862
:100C500014D0072814D04FF48E710AA000F02CF89D
:100C6000002010BD104810BD002010BD0F4810BD61
:100C7000002010BD002010BD002010BD002010BDC0
:100C8000002010BD2E2E5C2E2E5C557365725C62AA
:100C900073705C7372635C6273705F756172745FB2
:100CA0006669666F2E6300001C0100204809002061
:100CB0007047402000F0A5B8002900D0FEE770473B
:100CC00030B5B3F5804F05D06FF0704140F8221079
:100CD000002030BD8C690B688D6823434C6889897E
:100CE000240144EA0524234343EA014150F8223019
:100CF000024C2340194340F82210E9E70000F0CFEE
:100D000030B50A6850F8223023F0010340F8223051
:100D10008B68082B28D000224C681C43CB681343F7
:100D20000A691C4314434A6914438A691443CA6913
:100D300014430A6A14434A6A14438A6A1443CA6A07
:100D400014430A6B22434C6B14438B6B23430E4DAD
:100D50000A6850F82240AC431C4340F822400A6B1A
:100D6000B2F5801F02D007E04022D5E70A681AB129
:100D7000026842F4801202600A681AB10268496B84
:100D80000A430260002030BD7FFB3F0030B5D1E94F
:100D900000348D8943EA04138C68240244EA054434
:100DA00023430C8A641E43EA04540B7D9B1E44EAD1
:100DB00003638C692343521C50F8224004F04044E2
:100DC000234340F822300268D2020BD5426822F455
:100DD0007002098A491E42EA0151426822F47002F7
:100DE0000A434260002030BD0248016841F0010121
:100DF0000160704720040058402801D1FFF798BDDA
:100E0000704710B54FF0B041D1F88820024203D0AE
:100E1000C1F88800FFF7F0FF10BD00002DE9F84F82
:100E20000022684C4FF0B04B4FF003094FF00F0A0F
:100E3000C1E0012696403340002B71D04D68012D52
:100E400005D0022D03D0112D01D0122D15D18768A8
:100E5000550009FA05FC27EA0C07D1F80CC00CFA7A
:100E600005FC4CEA070CC0F808C04568B5430E798C
:100E7000C6F3001696402E434660C5684FEA420C02
:100E800009FA0CF6B5438F6807FA0CF72F43C760D1
:100E90004D68022D01D0122D12D1D50800EB850826
:100EA000D8F820705507ED0E0AFA05FE27EA0E075E
:100EB000D1F810E00EFA05FE4EEA070EC8F820E061
:100EC0000568B5430E7906F0030606FA0CF62E43C4
:100ED00006604D68ED006DD53B4D2E6846F002066C
:100EE0002E602D6805F00205009522F0030606F13C
:100EF000B046D6F808C495072F0F0AFA07F52CEA72
:100F0000050C324DA84201D100252EE0304DA842FB
:100F100001D1012529E02F4DA84202D1022524E06C
:100F200048E02D4DA84201D103251EE02B4DA842DB
:100F300001D1042519E02A4DA84201D1052514E06C
:100F4000284DA84201D106250FE0274DA84201D126
:100F500007250AE0254DA84201D1082505E0244DCA
:100F6000A84201D1092500E00A25BD4045EA0C054B
:100F7000C6F8085425689D434E68F60300D51D4306
:100F8000256065689D434E68B60300D51D436560C6
:100F9000DBF800509D434E68F60200D51D43CBF8A8
:100FA0000050DBF804509D434E68B60200D51D4347
:100FB000CBF80450521C0B6833FA02F57FF439AFBA
:100FC000BDE8F88F80000058F44402580000025831
:100FD0000004025800080258000C02580010025881
:100FE0000014025800180258001C02580020025831
:100FF0000024025801480068000C70470010005C93
:101000000148806870470000200000200248816885
:1010100002781144816070472000002010B5032041
:1010200000F0DCF801F0D6F80F490A68C2F3032398
:101030000E4AD35C03F01F03D840096801F00F018A
:10104000515C0B4A01F01F0120FA01F111600949BE
:1010500008600F2000F010F808B1012010BD00F06A
:101060007DF8002010BD000018440258A853000865
:10107000300000202C00002070B504460F4D2A7867
:10108000002A0CD04FF47A700D49B0FBF2F00968D9
:10109000B1FBF0F001F0A7FC18B1012070BD0120F8
:1010A00070BD102C07D200222146501E00F076F8A9
:1010B0006C60002070BD012070BD00002000002089
:1010C0002C000020144A41781160111D03780A1D7C
:1010D000002B1CD043680B60017BC37A090741EAEF
:1010E0000361837A41EAC341437B41EA8341837BC5
:1010F00041EA4341C37B41EA0341437A41EA032188
:10110000037A007841EA43010143116070470020EF
:10111000086010607047000098ED00E0BFF35F8F3B
:101120000448016821F480310160024900207031D7
:101130000860704724ED00E0074940F001000860B6
:1011400005487038016841F480310160BFF34F8F6A
:10115000BFF36F8F7047000094ED00E070470028E8
:101160000DDB012100F01F0291404009800000F1D9
:10117000E020C0F88011BFF34F8FBFF36F8F70472F
:10118000002809DB012100F01F0291404009800086
:1011900000F1E020C0F8001170470000F0B40D46E7
:1011A0000D4B1B68C3F30223C3F10704042C00D9C1
:1011B0000424191D072901D2002300E0DB1E0126AB
:1011C00006FA04F1491E294099409E40761E1640B9
:1011D0003143F0BC03F048B80CED00E000F007012B
:1011E000054A10684FF6FF03184040EA0120034902
:1011F00008431060704700000CED00E00000FA05A5
:1012000010B500F0A1FF05490968054AC1F30211B4
:10121000515C01F01F01C84010BD0000204402587D
:10122000A853000810B569490A6802F0030209686A
:10123000C1F30531654B1B1D1B68C3F30013634CE1
:1012400014342468C4F3CC0414FB03F300EE103A06
:10125000B8EE400A002971D09FED5D1A5B4BF7EEA6
:10126000000A1033F2B39FED5B2A012A7FD0022AD5
:101270007CD001EE901A1968F8EE611AC2EE212AAC
:10128000C1F3080101EE901AF8EE611A40EE011A5E
:1012900031EEA00A22EE800A1968C1F3462101EE60
:1012A000101AB8EE411A31EE201AC0EE011ABCEE47
:1012B000E11A80ED001A1968C1F3064101EE101A17
:1012C000B8EE411A31EE201AC0EE011ABCEEE11A56
:1012D00080ED011A1968C1F3066101EE101AB8EE2B
:1012E000411A00E008E071EE200A80EE201ABCEE00
:1012F000C10A80ED020A10BD344A283A1468A406D7
:101300001ED51268C2F3C104334AE24001EE902AAE
:10131000F8EE612A01EE901A1968F8EE611A82EE71
:10132000A12AC1F3080101EE901AF8EE611A40EE0D
:10133000011A31EEA00A22EE000AADE741E016E004
:1013400001EE901ADFED252A1968F8EE611A82EE97
:10135000A12AC1F3080101EE901AF8EE611A40EEDD
:10136000011A31EEA00A22EE000A95E713E001EE21
:10137000901A1968F8EE611AC2EE212AC1F3080129
:1013800001EE901AF8EE611A40EE011A31EEA00A51
:1013900022EE800A80E701EE901ADFED112A19682B
:1013A000F8EE611A82EEA12AC1F3080101EE901A4B
:1013B000F8EE611A40EE011A31EEA00A22EE000AA0
:1013C0006AE7002101604160816010BD2844025835
:1013D000000000390024744A0090D0030024744CAB
:1013E00020BCBE4B10B569490A6802F003020968C7
:1013F000C1F30551654B1B1D1B68C3F30023634CF0
:101400001C342468C4F3CC0414FB03F300EE103A3C
:10141000B8EE400A002971D09FED5D1A5B4BF7EEE4
:10142000000A1833F2B39FED5B2A012A7FD0022A0B
:101430007CD001EE901A1968F8EE611AC2EE212AEA
:10144000C1F3080101EE901AF8EE611A40EE011A9C
:1014500031EEA00A22EE800A1968C1F3462101EE9E
:10146000101AB8EE411A31EE201AC0EE011ABCEE85
:10147000E11A80ED001A1968C1F3064101EE101A55
:10148000B8EE411A31EE201AC0EE011ABCEEE11A94
:1014900080ED011A1968C1F3066101EE101AB8EE69
:1014A000411A00E008E071EE200A80EE201ABCEE3E
:1014B000C10A80ED020A10BD344A283A1468A40615
:1014C0001ED51268C2F3C104334AE24001EE902AED
:1014D000F8EE612A01EE901A1968F8EE611A82EEB0
:1014E000A12AC1F3080101EE901AF8EE611A40EE4C
:1014F000011A31EEA00A22EE000AADE741E016E043
:1015000001EE901ADFED252A1968F8EE611A82EED5
:10151000A12AC1F3080101EE901AF8EE611A40EE1B
:10152000011A31EEA00A22EE000A95E713E001EE5F
:10153000901A1968F8EE611AC2EE212AC1F3080167
:1015400001EE901AF8EE611A40EE011A31EEA00A8F
:1015500022EE800A80E701EE901ADFED112A196869
:10156000F8EE611A82EEA12AC1F3080101EE901A89
:10157000F8EE611A40EE011A31EEA00A22EE000ADE
:101580006AE7002101604160816010BD2844025873
:10159000000000390024744A0090D0030024744CE9
:1015A00020BCBE4B2DE9F84F044600250026FB4F1A
:1015B0002068DFF8EC83010104F1240000900DD5D0
:1015C000606EB0B1B0F5801F18D0B0F5001F1BD011
:1015D000B0F5401F00D00125E5B12E462088C0059A
:1015E00035D5606D05282FD2DFE800F01D22282FA9
:1015F0002F00386840F400303860EDE70221201DEC
:1016000001F094FE0546E7E70098022101F020FF73
:101610000546E1E7D8F80000616E20F44010084369
:10162000C8F80000DAE7386840F4003038600CE0B1
:101630000021201D01F07AFE054606E000980021F9
:1016400001F006FF054600E001255DB12E46208829
:10165000800518D5A06D802830D00CDC18B3402848
:101660000ED125E0D8F80000616D20F00700084396
:10167000C8F80000EBE7C02803D0B0F5807F00D0A9
:1016800001250DB32E462088DFF8189340052DD58F
:10169000D4F8A400B0F5800F42D01EDCA0B3B0F5A2
:1016A000001F20D136E0386840F400303860E8E7A9
:1016B0000021201D01F03AFE0546E2E700980021D6
:1016C00001F0C6FE0546DCE7D8F80000A16D20F465
:1016D000E0700843C8F80000D5E7B0F5C00F03D0AC
:1016E000B0F5000F00D0012505B32E462088000577
:1016F0002FD5D4F8A800B0F1007F52D020DCE8B399
:10170000B0F1807F22D146E0FFE7386840F4003036
:101710003860E9E70021201D01F008FE0546E3E7F7
:101720000098002101F094FE0546DDE7D9F800009D
:10173000D4F8A41020F460000843C9F80000D5E7ED
:10174000B0F1407F03D0B0F1806F00D0012575B3B8
:101750002E46206880010AD5A06C30B1102831D007
:10176000202835D0302800D0012585B32E4620888A
:10177000C00446D5E06DB0F5005F00E006E05BD048
:1017800036DCA0B3B0F5805F38D14FE0386840F464
:1017900000303860DBE70021201D01F0C7FD054661
:1017A000D5E70098002101F053FE0546CFE7FFE79B
:1017B000D9F80000D4F8A81020F0E0600843C9F878
:1017C0000000C6E7386840F400303860CDE705E037
:1017D0000221201D01F0AAFD0546C6E77048001F42
:1017E0000168A26C21F0300111430160BFE718E0ED
:1017F000B0F5405F03D0B0F5804F00D001250DB3A8
:101800002E46208880042FD5206EB0F5403F29D089
:1018100021DC38B3B0F5803F37D0B0F5003F20D1A0
:1018200039E0386840F400303860E8E70021201DD6
:1018300001F07CFD0546E2E70098002101F008FE7A
:101840000546DCE7D8F80000E16D20F4E0400843ED
:10185000C8F80000D5E7B0F5802F03D0B0F5A02F71
:1018600000D00125EDB12E46208840042BD5D4F8B8
:10187000AC00B0F1405F24D01CDC10B3B0F1805F4D
:101880004BD0B0F1005F1BD14EE00121201D01F0D3
:101890004DFD0546E6E70098012101F0D9FD05461A
:1018A000E0E7D8F80000216E20F4E0200843C8F8F3
:1018B0000000D9E7B0F1804F03D0B0F1A04F00D0C5
:1018C000012585B32E46208800040AD5E06E30B18C
:1018D000B0F1805F39D0B0F1005F3BD001259DB3FE
:1018E0002E462068C0010AD5606C30B1012841D075
:1018F000022844D0032800D001258DB32E4620684D
:10190000DFF8A4B0400261D52848016841F4807135
:101910000160FFF775FB824652E00121201D01F0B6
:1019200005FD0546CDE705E00098012101F090FD99
:101930000546C6E7D9F80000D4F8AC1020F0E04026
:101940000843C9F80000BEE70BE0386840F40030F7
:101950003860C4E70121201D01F0E8FC0546BEE720
:1019600013E0D8F80000E16E20F040500843C8F8BA
:101970000000B6E7386840F400303860BDE7022167
:10198000201D01F0D3FC0546B7E70548001F01689C
:10199000626C21F0030111430160B0E72C4402584E
:1019A0005044025858440258104402580048025803
:1019B000FFF726FBA0EB0A00642801D9032503E00A
:1019C000FE480068C005F3D57DB12E462078DFF8CB
:1019D000F0A3C00766D0A06F182861D05BDC80B38D
:1019E00008286AD010285AD16DE0F5481C300068EC
:1019F000B4F8B01000F4407001F4407188420DD08A
:101A0000EF481C30016821F44071026842F48032D2
:101A10000260026822F4803202600160D4F8B000F3
:101A2000B0F5807F13D1FFF7EBFA82460AE0FFF7AB
:101A3000E7FAA0EB0A0141F28830814202D903257E
:101A400005E02DE0DE481C3000688007EFD50DB1C1
:101A50002E46BBE7D4F8B000C0F3012103290FD014
:101A6000DBF8000020F47C50CBF80000D4481C3098
:101A70000168B4F8B020C2F30B0211430160A5E77E
:101A8000DBF80010CF4A21F47C51104041EA1010DD
:101A9000CBF80000EAE7202802D0282800D0012552
:101AA000BDB12E46207880072BD5606F062825D241
:101AB000DFE800F025181E2525250121201D01F055
:101AC00035FC0546ECE70098012101F0C1FC054614
:101AD000E6E7DAF80000A16F20F038000843CAF802
:101AE0000000DFE70121201D01F020FC054606E093
:101AF0000098012101F0ACFC054600E0012565B12C
:101B00002E462078400720D5D4F89000062819D218
:101B1000DFE800F0190C12191919DAF80000616FEA
:101B200020F007000843CAF80000EAE70121201D61
:101B300001F0FCFB054606E00098012101F088FC5D
:101B4000054600E001258DB12E462078800620D57F
:101B5000D4F88C00B0F1405F19D011DCB8B1B0F10D
:101B6000805F27D0B0F1005F10D129E0D9F80000E4
:101B7000D4F8901020F007000843C9F80000E4E70B
:101B8000B0F1804F03D0B0F1A04F00D00125EDB1EE
:101B90002E46207840062CD5D4F89800B0F5406F3A
:101BA00025D01DDC18B3B0F5806F33D0B0F5006FD1
:101BB0001CD135E00021201D01F0B8FB0546E6E709
:101BC0000098022101F044FC0546E0E7DAF8000045
:101BD000D4F88C1020F0E0400843CAF80000D8E7A1
:101BE000B0F5805F03D0B0F5A05F00D00125EDB166
:101BF0002E46207800062CD5D4F89C00B0F5C04FB6
:101C000025D01DDC18B3B0F5005F2BD0B0F5804FA8
:101C10001CD12DE00021201D01F088FB0546E6E7E0
:101C20000098022101F014FC0546E0E7D9F8000015
:101C3000D4F8981020F4E0500843C9F80000D8E721
:101C4000B0F5004F03D0B0F5204F00D00125ADB165
:101C50002E46207800072AD5D4F88000B0F5805FA2
:101C600016D01BE00021201D01F060FB0546EEE7C9
:101C70000098022101F0ECFB0546E8E7D9F80000E6
:101C8000D4F89C1020F460400843C9F80000E0E755
:101C90000098022101F0DCFB00B10126DAF8000017
:101CA000D4F8801020F440500843CAF8000020788F
:101CB000C00613D5D4F89400B0F5807F05D1009804
:101CC000022101F0C5FB00B10126D9F80000D4F8CB
:101CD000941020F440700843C9F800002068000305
:101CE0000BD5D4F8A000E8B3B0F5803F6DD0B0F5C7
:101CF000003F00D00125B5B32E46206840030DD526
:101D0000D4F88400B0F5801F7DD0B0F5001F7BD0E3
:101D1000B0F5401F00D0012535B32E462068C00322
:101D200007D5E06CF0B3B0F5803F6ED00125D5B398
:101D30002E462068800005D50098022101F088FB1E
:101D400000B101262068800311D5E06F48B1B0F5DD
:101D5000807F6ED0B0F5007F03D0B0F5407F00D01B
:101D6000012502E05FE06BE07FE06DB32E46206866
:101D7000C00207D5D8F80000216F20F000400843CA
:101D8000C8F800002068C00008D5DBF80000D4F8CF
:101D9000B41020F480400843CBF800002068800293
:101DA0000AD501E06CE076E0D8F80000A16E20F0E2
:101DB00080700843C8F80000206807E00048025817
:101DC00054440258FFFCFF0F72E033E040000CD592
:101DD000DBF8000020F40040CBF80000DBF8000046
:101DE000D4F8B8100843CBF800002068002806DAC1
:101DF00035480168226D21F040511143016020688F
:101E000000020CD502E025E029E03EE0DAF800000F
:101E1000D4F8881020F440000843CAF8000076B3D4
:101E20000120BDE8F88F0021201D01F07FFA054652
:101E300061E738E00098022101F00AFB05465AE705
:101E4000D9F80000D4F8A01020F440300843C9F8B5
:101E5000000052E7386840F4003038605CE70098D2
:101E6000012101F0F5FA054656E7DAF80000D4F84A
:101E7000841020F440100843CAF800004EE720E028
:101E8000386840F40030386051E70221201D01F02D
:101E90004DFA05464BE70C480168E26C21F48031AD
:101EA0001143016045E7386840F40030386058E776
:101EB000DAF80000E16F20F440700843CAF800002F
:101EC00055E70020ADE700004C4402582DE9F05FD3
:101ED00004460D46002C17D0DFF84C82D8F80000DD
:101EE00000F00F00A84211D2D8F8000020F00F0037
:101EF0002843C8F80000D8F8000000F00F00A842FE
:101F000004D00120BDE8F09F0120FBE72078874E38
:101F100040070AD52069316801F07001884204D970
:101F2000316821F07001014331602078804F000753
:101F30000AD56069396801F07001884204D93968AE
:101F400021F07001014339602078C0060AD5A069EC
:101F5000396801F4E061884204D9396821F4E0610C
:101F6000014339602078DFF8CC9180060DD5E06917
:101F7000D9F8001001F07001884206D9D9F8001094
:101F800021F070010143C9F80010207880070AD5BC
:101F9000E068316801F00F01884204D9316821F00E
:101FA0000F01014331602078C00743D03068A16839
:101FB00020F47060084330605C496068183902287A
:101FC00008D003280BD001280ED00968490710D487
:101FD000012097E7096889030BD4012092E709687B
:101FE000890106D401208DE70968C90501D40120C3
:101FF00088E7DFF838A1AAF1080ADAF8001021F022
:1020000007010143CAF80010FEF7FAFF834609E012
:10201000FEF7F6FFA0EB0B0141F28830814201D9B7
:1020200003206FE7DAF80000616800F03800B0EBD9
:10203000C10FEDD1207880070AD5E068316801F042
:102040000F01884204D2316821F00F010143316051
:10205000D8F8000000F00F00A8420ED9D8F8000010
:1020600020F00F002843C8F80000D8F8000000F066
:102070000F00A84201D0012044E7207840070AD58C
:102080002069316801F07001884204D2316821F082
:10209000700101433160207800070AD56069396812
:1020A00001F07001884204D2396821F070010143C7
:1020B00039602078C0060AD5A069396801F4E0616A
:1020C000884204D2396821F4E06101433960207804
:1020D00080060DD5E069D9F8001001F07001884242
:1020E00006D2D9F8001021F070010143C9F80010A0
:1020F00000F070F83168C1F303220F498A5C02F0E6
:102100001F02D040326802F00F02895C0B4A01F0D6
:102110001F0120FA01F111600949086009480068AF
:10212000BDE8F05FFEF7A8BF002000521844025837
:102130001C44025820440258A853000830000020D4
:102140002C0000202400002000B500F043F80B49CB
:102150000A68C2F303230A4AD35C03F01F03D84082
:10216000096801F00F01515C064A01F01F0120FAD5
:1021700001F11160044A1060084600BD184402587D
:10218000A8530008300000202C00002000B5FFF705
:10219000DBFF05490968054AC1F30211515C01F0F2
:1021A0001F01C84000BD00001C440258A85300088D
:1021B00000B5FFF7C9FF05490968054AC1F30221C7
:1021C000515C01F01F01C84000BD00001C440258D2
:1021D000A853000830B564480068654C10F0380119
:1021E000624808D0021108290DD010290DD01829F5
:1021F0000DD0104630BD21688906FBD52168C1F39A
:10220000C101C84030BD104630BD5A4830BD5649A6
:1022100018310A6802F003020968C1F30511524B34
:102220001C331B6803F001034F4D24352D68C5F3A3
:10223000CC0515FB03F300EE103AB8EE400A002976
:1022400077D0DFED4D0A484BB7EE001A20333AB392
:102250009FED4A2A012A58D0022A6CD001EE901A2A
:102260001868F8EE611AC2EE212AC0F3080001EEE8
:10227000900AF8EE611A40EE201A31EE810A22EE41
:10228000800A1868C0F34620401C00EE900AF8EE61
:10229000600A80EE201ABCEEC10A10EE100A30BDB2
:1022A000226892061BD52268C2F3C102D04001EE1B
:1022B000900A1868F8EE612A01EE901AF8EE611A99
:1022C00082EEA12AC0F3080001EE900AF8EE611A2E
:1022D00040EE201A31EE810A22EE000AD1E701EE2B
:1022E000901ADFED272A1868F8EE611A82EEA12A0B
:1022F000C0F3080001EE900AF8EE611A40EE201AD1
:1023000031EE810A22EE000ABBE701EE901A18684E
:10231000F8EE611AC2EE212AC0F3080001EE900A1D
:10232000F8EE611A40EE201A31EE810A22EE800AA0
:10233000A7E716E0FFE701EE901ADFED122A186812
:10234000F8EE611A82EEA12AC0F3080001EE900AAD
:10235000F8EE611A40EE201A31EE810A22EE000AF0
:102360008FE7002030BD0000104402580090D003D9
:102370000044025840787D01000000390024744A6E
:102380000024744C20BCBE4B2DE9F05F0446002CA9
:1023900012D0207841F28838DFF8D893F64FF74D05
:1023A000C0075DD0D9F8000000F038003968102867
:1023B0001FD0182803D006E00120BDE8F09F01F0EF
:1023C0000300022815D06068B0F5803F18D0E0B156
:1023D000B0F5A02F22D0286820F48030286028682B
:1023E00020F480202860606860B3FEF709FE06468E
:1023F00024E02868800333D5606810BB0120DCE747
:10240000286840F480302860EDE7286820F48030A8
:102410002860286820F480202860E4E7286840F4D9
:1024200080202860286840F480302860DBE7FEF7D1
:10243000E7FD801B404501D90320BEE728688003E3
:10244000F5D50DE0FEF7DCFD064606E0FEF7D8FD0B
:10245000801B404501D90320AFE728688003F5D4ED
:10246000207841F2030BC64E800774D5D9F80000DE
:1024700000F03800396870B1182801D188070AD0F7
:10248000E068A0B3296821F0190101432960FEF733
:10249000B7FD82462CE02868400701D5E06868B1A6
:1024A000FEF7A8FD584512D82069402808D03168A9
:1024B00021F47C3141EA003030604CE001207CE7BF
:1024C000306820F47C3040F40030306043E0306805
:1024D000217C20F0FE4040EA016030603BE0FEF7E6
:1024E0008FFDA0EB0A00022802D9032065E71FE058
:1024F00028684007F3D5FEF77DFD584510D82069C0
:10250000402806D0316821F47C3141EA0030306047
:1025100021E0306820F47C3040F4003030601AE074
:102520003068217C20F0FE4040EA0160306012E01B
:10253000286820F001002860FEF762FD824607E06F
:10254000FEF75EFDA0EB0A00022801D9032034E764
:1025500028684007F4D42078C0067CD5D9F800005C
:1025600000F03800396808280FD0182803D101F08E
:102570000300012809D0E06978B3286840F08000A2
:102580002860FEF73DFD824630E02868C00504D58E
:10259000E069802801D001200FE7FEF72BFD5845A8
:1025A00010D8206A202806D0316821F0F84141EA8D
:1025B000806030604FE0306820F0F84040F08040AC
:1025C000306048E06B48001F016894F8202021F03B
:1025D0007C5141EA026101603DE02AE0FEF710FD16
:1025E000A0EB0A00022801D90320E6E62868C0050E
:1025F000F4D5FEF7FFFC584510D8206A202806D0F5
:10260000316821F0F84141EA8060306023E03068B1
:1026100020F0F84040F0804030601CE05548001F3A
:10262000016894F8202021F07C5141EA02610160A8
:1026300011E0286820F080002860FEF7E1FC0646E3
:1026400006E0FEF7DDFC801B022801D90320B4E67A
:102650002868C005F5D42078000730D5DFF818A128
:1026600060690AF14C0AA8B1DAF8000040F00100F4
:10267000CAF80000FEF7C4FC064606E0FEF7C0FC00
:10268000801B022801D9032097E6DAF800008007B2
:10269000F4D514E0DAF8000020F00100CAF80000D8
:1026A000FEF7AEFC064606E0FEF7AAFC801B0228F9
:1026B00001D9032081E6DAF800008007F4D42078FD
:1026C000800626D5A06990B1286840F48050286023
:1026D000FEF796FC064606E0FEF792FC801B0228F9
:1026E00001D9032069E628688004F5D511E028683F
:1026F00020F480502860FEF783FC064606E0FEF7D3
:102700007FFC801B022801D9032056E6286880043C
:10271000F5D4207840076AD5DFF868A0DAF8000021
:1027200040F48070CAF80000FEF76AFC064606E036
:10273000FEF766FC801B642801D903203DE6DAF829
:102740000000C005F4D50C4EA068483601281BD007
:10275000F8B1052826D0306820F0010030603068DC
:1027600020F004003060A06888B3FEF749FC824680
:1027700029E000001044025828440258004402583E
:102780000444025800480258306840F001003060AC
:10279000E9E7306820F001003060306820F0040084
:1027A0003060E0E7306840F004003060306840F0AE
:1027B00001003060D7E7FEF723FCA0EB0A0040459C
:1027C00001D90320F9E530688007F4D50FE0FFE771
:1027D000FEF716FC824607E0FEF712FCA0EB0A00AB
:1027E000404501D90320E8E530688007F4D4616AE8
:1027F000E9B3D9F80000DFF87C81C0F3C2000328F8
:1028000076D0022907D0286820F080702860FEF773
:10281000F7FB04467FE0286820F080702860FEF710
:10282000EFFB064606E0FEF7EBFB801B022801D912
:102830000320C2E528688001F5D4386840F2F331FE
:102840008843E16A40EA0110A16A08433860208E9B
:102850004FF6FF72616B401E491EC0F3080002EA8A
:1028600041210843218F4FF4FE02491E00E07FE022
:1028700002EA0141084394F83C10491E120202EAA0
:1028800001610843C8F800003A48001F016821F0C0
:10289000010101603749091D0A684FF6F8739A4330
:1028A000A36C42EAC3020A600168226C21F00C01A9
:1028B000114301600168626C21F002011143016063
:1028C000016841F480310160016841F40031016028
:1028D000016841F480210160016841F0010101605B
:1028E000286840F080702860FEF78AFB044607E005
:1028F00015E0FEF785FB001B022801D903205CE5EB
:1029000028688001F5D533E0FEF77AFB001B02282A
:1029100001D9032051E528688001F5D428E03A6800
:10292000D8F80000012921D0A36A02F003019942DE
:102930001CD1E16AC2F30512914217D1216BC0F399
:102940000802491E8A4211D1616BC0F34622491E1A
:1029500091420BD1A16BC0F30642491E914205D1B1
:10296000E16BC0F30660491E814201D0012024E5DD
:10297000002022E53044025870B504460E46154644
:10298000002C03D094F8450010B107E0012070BD81
:10299000002084F84400204600F024F8206804F168
:1029A0000801FEF7ADF9A26831462068FEF7EEF99E
:1029B000E36A2946D4E90102FEF782F9A16820689A
:1029C00050F8212042F0010240F82120044801681B
:1029D00041F000410160012084F84500002070BDF5
:1029E00000400052704710B5401EB0F1807F01D307
:1029F000012010BD4FF0E02460610F21601701F04D
:102A000033FC0020A06107202061002010BD10B51C
:102A10000446002C03D094F83D0010B107E00120DB
:102A200010BD002084F83C00204600F017F802207A
:102A300084F83D002068211D00F046FF01203D3450
:102A4000E0726070A070E07020716071A071E07140
:102A500020726072A0722070002010BD70470000CC
:102A600090F83D10012901D001207047022180F823
:102A70003D1000681349884211D0B0F1804F0ED04C
:102A8000114988420BD01149884208D01049884228
:102A900005D01049884202D00F4988420CD1816884
:102AA0000E4A114006290BD0B1F5803F08D00168CD
:102AB00041F00101016003E0016841F001010160A2
:102AC0000020704700000140000400400008004062
:102AD000000C004000040140001800400700010005
:102AE00010B50446002C03D0D4F8840010B107E0E0
:102AF000012010BD002084F88000204600F028F856
:102B00002420C4F884002068016821F001010160DC
:102B1000204600F0CDFF012818D0A06A10B1204651
:102B200000F032FF2068416821F490414160206844
:102B3000816821F02A0181602068016841F001016B
:102B400001602046BDE8104000F082BF012010BDAA
:102B50007047000000B59BB04C2108A8FDF742FC6F
:102B60001C2101A8FDF73EFC164808901648099064
:102B7000052001900220029003900121049105900C
:102B80000690002007900A900B900C9020210D9148
:102B90000E900F901090C901119112901390149003
:102BA00015901690179001AA01A908A8FFF7E4FE56
:102BB000002804D04FF4927104A0FEF77DF81BB0FA
:102BC00000BD000000400052044100522E2E5C2E39
:102BD0002E5C557365725C6273705C7372635C62C9
:102BE00073705F666D635F696F2E630010B586B0AA
:102BF0002E48016841F008010160016801F00801F8
:102C00000091016841F010010160016801F01001BC
:102C10000091016841F040010160016801F040014C
:102C20000091016841F080010160016801F08001BC
:102C30000091016841F480710160006800F48070C7
:102C400000901A480C38016841F480510160006816
:102C500000F4805000900220029001200390032491
:102C600004940C2005904CF2B3700190104801A917
:102C7000FEF7D4F84FF6807001900E4801A9FEF7D8
:102C8000CDF8019401A90C48FEF7C8F84FF47F4035
:102C900001900A4801A9FEF7C1F840F2CF60019007
:102CA000074801A9FEF7BAF806B010BDE044025883
:102CB000000C02580010025800180258001C02585C
:102CC0000020025803490968014201D001207047E1
:102CD000002070471C000020064A002906D0116819
:102CE000014311601068044908607047116881430E
:102CF0001160F7E71C0000200010006030B5294982
:102D00000A68002A07DA0A6842F000420A6081690C
:102D1000891C816130BD234A083A1268224C226224
:102D2000204A121F127884F824201E4AD21E1278DC
:102D3000A2621C4A0C321268E2621A4A921E12887F
:102D40002286096861631749091D0968A16315494D
:102D500010310968E16315A500211F4A6B5C93627D
:102D6000D3695B06FCD5491CC9B22929F6D31B4996
:102D700000230B600A68002AFCD0026822604268C7
:102D800062608268A260C268E26002692261426990
:102D900062618269A261C069E0610B600868002815
:102DA000FCD030BD2CED00E09C1100200D0A456EDA
:102DB00074657220486172644661756C745F486125
:102DC0006E646C65722C2053797374656D20486154
:102DD0006C742E0D0A000000001001403400002029
:102DE0002DE9F047B6B0012702970020209002A8F5
:102DF000FEF7D8FB514C206840F0010020602068AD
:102E000000F001000190206840F00100206020687F
:102E100000F00100019049481030016841F01001B4
:102E20000160006800F010000190780231904FF0CE
:102E30000209CDF8C89033974FF0030ACDF8D0A01F
:102E40000726359631A93E4D2846FDF7E7FF4FF49A
:102E50008068CDF8C480359631A92846FDF7DEFF9D
:102E6000002204212520FEF799F92520FEF788F994
:102E7000344D0C2300224FF4E131284602F03CF996
:102E8000286A40F040002862A86940F00800A86164
:102E9000286840F020002860206840F00200206090
:102EA000206800F002000190206840F002002060DD
:102EB000206800F00200019020480830016841F4C9
:102EC00080210160006800F480200190CDF8C4806A
:102ED000CDF8C8903397CDF8D0A0359631A91A4CCB
:102EE0002046FDF79BFFE9143191359631A9204624
:102EF000FDF794FF032204212720FEF74FF9272036
:102F0000FEF73EF9114C0C2300224FF416512046D7
:102F100002F0F2F80D4920310A6842F040020A60DE
:102F20000A491831086840F008020A60206840F039
:102F30002000206036B0BDE8F0870000E044025871
:102F400000000258001001400004025800480040F0
:102F50002DE9F0410746082F18D24FF000054FF039
:102F6000FF062C46204600F02FF810B16D1CEDB284
:102F70002646641CE4B2082CF4D3012D04D1BE42D1
:102F800002D10120BDE8F0810020FBE70BD1002039
:102F900000F01AF828B1012000F016F808B101205D
:102FA000F0E70020EEE7092F01D00020EAE701203A
:102FB00000F00AF828B1022000F006F808B101205C
:102FC000E0E70020DEE70000094951F830201269EF
:102FD00001EBC0018888024201D1002000E00120FD
:102FE0008979814201D1012070470020704700009B
:102FF000105300087FB5FEF791F801258DF80050B9
:103000004FF01050019012208DF8080003268DF823
:103010000B608DF80F508DF80E5000248DF80D4088
:103020008DF801408DF80A408DF809408DF80C406C
:103030006846FEF747F88DF80050700701900F20A2
:103040008DF808008DF80B608DF80F508DF80E404C
:103050008DF80D408DF801508DF80A408DF809402B
:103060008DF80C406846FEF72DF80420FEF764F852
:103070007FBDFEE77047704710B504A001F0E4F88B
:10308000BDE810400F4801F0DFB80000312E20C627
:10309000F4B6AFD2BBB8F6D7D4B6AFD6D8D7B0C88F
:1030A000EDBCFEB6A8CAB1C6F7A3ACC3BF31303081
:1030B0006D73B7ADD7AAD2BBB4CE4C4544320D0A1E
:1030C00000000000B853000870B521A001F0BCF862
:1030D0002F480468001D0568001D06684FF4F07154
:1030E0002CA001F0B1F837A023462A46314601F062
:1030F000ABF839A001F0A8F815A001F0A5F837A1A8
:103100003EA001F0A1F842A142A001F09DF846A125
:1031100048A001F099F84CA001F096F856A001F0F3
:1031200093F857A001F090F85BA001F08DF85FA034
:1031300001F08AF864A001F087F86AA001F084F831
:1031400070A001F081F8BDE8704001A001F07CB8EA
:103150002A2A2A2A2A2A2A2A2A2A2A2A2A2A2A2ACF
:103160002A2A2A2A2A2A2A2A2A2A2A2A2A2A2A2ABF
:103170002A2A2A2A2A2A2A2A2A2A2A2A2A2A2A2AAF
:103180002A2A2A2A2A2A2A2A2A2A2A2A2A0A0D0006
:1031900000E8F11F0D0A435055203A2053544D3397
:1031A0003248373433584948362C2042474132346C
:1031B000302C20D6F7C6B53A2025644D487A0D0A42
:1031C00000000000554944203D2025303858202576
:1031D00030385820253038580A0D0000414453310A
:1031E0003235362838CDA8B5C0B4F8504741B5C4FB
:1031F0003234626974204144432900002A20C0FD12
:10320000B3CCC3FBB3C62020203A2025730D0A009F
:10321000312E30002A20C0FDB3CCB0E6B1BE202054
:10322000203A2025730D0A00323032312D30392DED
:10323000313700002A20B7A2B2BCC8D5C6DA202098
:10324000203A2025730D0A002A2048414CBFE2B0E5
:10325000E6B1BE20203A2056312E31302E302028C3
:1032600053544D3332483778782048414C204472CB
:1032700069766572290D0A002A200D0A00000000F7
:103280002A205151202020203A203132393537343C
:1032900034363330200D0A002A20CDFACDFA202012
:1032A0003A2061726D666C790D0A00002A20456D26
:1032B00061696C203A2061726D666C794071712E83
:1032C000636F6D200D0A00002A20CEA2D0C5B9ABD5
:1032D000D6DABAC53A2061726D666C795F636F6D3C
:1032E000200D0A002A20CCD4B1A6B5EA3A2061729A
:1032F0006D666C792E74616F62616F2E636F6D0DF8
:103300000A0000002A20436F707972696768742090
:103310007777772E61726D666C792E636F6D20B052
:10332000B2B8BBC0B3B5E7D7D30D0A002DE9F0475B
:10333000044688460027DFF81491D9F80000C043FE
:10334000800709D0414D283D286820F08060286022
:10335000FDF756FE064609E00120BDE8F087FDF7BF
:103360004FFE801B022801D90320F6E728680001E0
:10337000F5D4D9F80000216820F47C3040EA01300F
:10338000C9F80000A0884FF6FF72A168401E491ED0
:10339000C0F3080002EA41210843A1894FF4FE026C
:1033A000491E02EA01410843217C1202491E02EA39
:1033B000016108432549103108602448001D016857
:1033C000626921F0C001114301600168A26921F026
:1033D000200111430160016821F0100101601B49C7
:1033E00014310A684FF6F8739A43E36942EAC3025C
:1033F0000A60016841F010010160B8F1000F0ED0C1
:10340000B8F1010F10D0016841F400110160286883
:1034100040F080602860FDF7F3FD044610E001688D
:1034200041F400210160F2E7016841F4801101607C
:10343000EDE7FDF7E5FD001B022801D903208CE72D
:1034400028680001F5D5384687E70000284402586F
:103450002DE9F047044688460027DFF81491D9F893
:103460000000C043800709D0414D283D286820F066
:1034700080502860FDF7C4FD064609E00120BDE844
:10348000F087FDF7BDFD801B022801D90320F6E778
:1034900028688000F5D4D9F80000218820F07C70DD
:1034A00040EA0150C9F80000A0884FF6FF72A168F9
:1034B000401E491EC0F3080002EA41210843A189C9
:1034C0004FF4FE02491E02EA01410843217C120228
:1034D000491E02EA01610843254918310860244861
:1034E000001D0168626921F44061114301600168B7
:1034F000A26921F4007111430160016821F4807117
:1035000001601B491C310A684FF6F8739A43E3695E
:1035100042EAC3020A60016841F480710160B8F1B7
:10352000000F0ED0B8F1010F10D0016841F080718A
:103530000160286840F080502860FDF761FD044676
:1035400010E0016841F480010160F2E7016841F494
:1035500000010160EDE7FDF753FD001B022801D9D2
:1035600003208CE728688000F5D5384687E70000FF
:103570002844025800B587B00B48016841F00201A9
:103580000160006800F0020001900120039000201B
:1035900004900320059004200290044802A9FDF73E
:1035A0003DFC07B000BD0000E04402580004025892
:1035B0007047000001490420086070471804025851
:1035C00002494FF480200860704700001804025838
:1035D0007047000010B5FDF719FD04484078002839
:1035E00003D0BDE8104000F003B810BD000000207B
:1035F00070B5174E7068002805D07068401E706066
:1036000001D1012030700024124D04EB440005EB81
:10361000800001F0A5FD641CE4B2042CF5D3B06871
:10362000401CB060B06800246FF00041884200D1B7
:10363000B46001F055FDB078401CC0B2B0700A28EB
:1036400004D3B470BDE8704001F048BD70BD000007
:1036500000000020EC00002030B59DB0202115A80E
:10366000FCF7C0FE4C2102A8FCF7BCFE2E48016806
:1036700021F00401016000242C48016821F00101BF
:103680000160006828480C30016841F44041016045
:10369000016801F44041019101688904FCD50120D1
:1036A0000290000403900594099402200B900C9062
:1036B00005210D91A0210E910F90119004201090E2
:1036C000139408251295149402A8FEF75DFE18B114
:1036D000962117A0FDF7F0FA3F20159003201690D1
:1036E00017941895402019901A9001011B911C9075
:1036F000042115A8FEF7EAFB18B1B1210CA0FDF7D3
:10370000DBFA1148016841F0800101600E48F43095
:10371000016841F002010160006800F002000190C0
:10372000FDF762FB1DB030BD0C4802582C04005858
:103730002E2E5C2E2E5C557365725C6273705C621B
:1037400073702E63000000000044025810B52E482C
:10375000016841F4700101602C4A106800F00F000C
:10376000072804D2106820F00F00C01D10602849FF
:10377000086840F001000860254B002010331860F5
:103780000B68244C23400B60136803F00F03072BD6
:1037900004D9136823F00F03DB1D13601C4A183291
:1037A0001060121D1060121D1060194B1A4A283348
:1037B0001A601B1D194A1A601B1D194A1A601B1D2D
:1037C00018601B1D1A601B1D18601B1D1A601A1D36
:1037D00010600A6822F480220A600D496031086096
:1037E000104800686FF30F00B0F1005F02D20E497D
:1037F0000120086043F2D2000C49086048030249E6
:103800008039086010BD000088ED00E00020005203
:10381000004402587FEDF6EA000202020000FF01B8
:10382000800201010010005C08810051004000523C
:1038300070B54FF08044206900F00200E16801F0AB
:103840000201204D002808D039B14FF6FD702061EB
:10385000E1680140E160E8688047206900F0040009
:10386000E16801F0040140B139B14FF6FB7020610D
:10387000E1680140E16028698047206900F00800A4
:10388000E16801F0080140B139B14FF6F7702061ED
:10389000E1680140E16068698047206900F010003C
:1038A000E16801F0100100280BD0002909D04FF683
:1038B000EF702061E1680140E160A869BDE87040F7
:1038C000004770BD000000202DE9F04F02684FF066
:1038D000804B254DDFF89480DFF89490A842DFF804
:1038E00094A0254B09D0584507D0404505D0484500
:1038F00003D0504501D0984203D122F070044A68A9
:1039000022431E4E1E4FA842DFF878C00FD0584504
:103910000DD040450BD0484509D0504507D09842BE
:1039200005D0B04203D0B84201D0604503D122F4A3
:103930004074CA6822434C6922F08002224302602C
:103940008A68C2620A688262A84207D0984205D09B
:10395000B04203D0B84201D0604501D1096901638A
:1039600001214161BDE8F08F0000014000040040EA
:1039700000080040000C00400004014000400140ED
:10398000004401400048014090F82810C90706D0C3
:1039900001684A68C36A22F400321A434A6090F808
:1039A0002810890706D501684A68036B22F4803223
:1039B0001A434A6090F82810490706D501684A68FA
:1039C000436B22F480221A434A6090F828100907BA
:1039D00006D501684A68836B22F400421A434A60A4
:1039E00090F82810C90606D501688A68C36B22F4CE
:1039F00080521A438A6090F82810890606D501681B
:103A00008A68036C22F400521A438A6090F82810E6
:103A1000490611D501684A68436C22F480121A43A2
:103A20004A60416CB1F5801F06D101684A68836C19
:103A300022F4C0021A434A6090F82810090606D5FD
:103A400001684A68C06C22F4002202434A60704751
:103A5000F8B504460025C4F88C50FDF7D1FA0746A6
:103A6000206800686FF07E4600070AD500223B46BA
:103A70004FF400112046009600F063FA08B10320CD
:103A8000F8BD2068006840070AD500223B464FF485
:103A900080012046009600F054FA08B10320F8BDDA
:103AA00020206C34A061E061256025750020F8BD00
:103AB0002DE9F04387B004460025DFF8F88320683D
:103AC0002269A168E369114362691A4311430268DC
:103AD000F94B1A400A43026020684168E26821F409
:103AE000405111434160A0692168414501D0226ADB
:103AF00010438A68F14B1A4002438A602068C16A09
:103B0000626A21F00F011143C162ED492268ED485C
:103B10008A421DD1006800F03800182812D005DC58
:103B200050B108280AD0102804D109E020280BD071
:103B300028280BD08021EBE00121E9E00421E7E017
:103B40000821E5E01021E3E02021E1E04021DFE071
:103B5000DD498A4217D1006800F00700062810D21C
:103B6000DFE800F0030507090B0D0021D0E0042178
:103B7000CEE00821CCE01021CAE02021C8E040219D
:103B8000C6E08021C4E0D1498A4217D1006800F024
:103B90000700062810D2DFE800F0030507090B0D27
:103BA0000021B5E00421B3E00821B1E01021AFE02D
:103BB0002021ADE04021ABE08021A9E0C4498A4248
:103BC00017D1006800F00700062810D2DFE800F0E7
:103BD000030507090B0D00219AE0042198E0082154
:103BE00096E0102194E0202192E0402190E0802195
:103BF0008EE0B8498A4217D1006800F00700062815
:103C000010D2DFE800F0030507090B0D00217FE06B
:103C100004217DE008217BE0102179E0202177E07C
:103C2000402175E0802173E0AB498A421DD10068D4
:103C300000F03800182812D005DC50B108280AD04E
:103C4000102804D109E020280BD028280BD080218F
:103C50005EE001215CE004215AE0082158E01021D7
:103C600056E0202154E0402152E09C498A4217D17D
:103C7000006800F00700062810D2DFE800F0030516
:103C800007090B0D002143E0042141E008213FE03A
:103C900010213DE020213BE0402139E0802137E048
:103CA0008F498A4217D1006800F00700062810D219
:103CB000DFE800F0030507090B0D002128E00421CF
:103CC00026E0082124E0102122E0202120E04021EC
:103CD0001EE080211CE0424519D17A48001D006891
:103CE00000F00700062810D2DFE800F003050709FE
:103CF0000B0D02210CE004210AE0082108E010214C
:103D000006E0202104E0402102E0802100E0802143
:103D100074486C4B0027744E4FF40049543B4245A5
:103D20004FEA201C53D110292AD006DC02291AD0D0
:103D300004291BD0082904D11DE0202928D04029BE
:103D400028D000200125E8B3616A36F81120B0FBC5
:103D5000F2F1666806EB46038B4202D8B1EB063FF0
:103D60001AD90125E3E0FDF74BFAECE704A8FDF7CB
:103D700059FA0598E7E701A8FDF734FB0298E2E756
:103D800019688906DFD51968C1F3C101C840DAE7AF
:103D90006046D8E74846D6E700231946FCF798FA6C
:103DA0000902020241EA1061700810183246794196
:103DB0000023FCF78DFA4D4AA0F54071914204D8DA
:103DC000216800E04BE0C860B1E00125AFE0E269A6
:103DD0004FF6EF784A4549D1082933D005DC31B395
:103DE000012927D0042906D127E010292FD0202926
:103DF00036D0402936D00020012580B3616A36F8DC
:103E00001110B0FBF1F04100606801EB5001B1FB13
:103E1000F0F080B2A0F11001414525D84FF6F071C5
:103E20000140C0F3420001432068C1607FE0FEF71B
:103E3000ADF9E2E7FEF7BCF9DFE704A8FDF7F2F918
:103E40000598DAE701A8FDF7CDFA0298D5E71968D9
:103E50008906D2D51968C1F3C101C840CDE748E051
:103E60006046CAE74846C8E7012560E008294CD00B
:103E700005DCE9B3012940D0042906D140E010292E
:103E800048D020294ED040294ED00020012580B3B3
:103E9000616A36F81110B0FBF1F1606801EB500176
:103EA000B1FBF0F080B2A0F1100141453ED821688D
:103EB000C8603CE0000C0058F369FFCFFFF4FF112D
:103EC00000100140544402580044004000480040A3
:103ED000004C0040005000400014014000780040B9
:103EE000007C00400090D00390530008FFFC0F00BE
:103EF00000E01CE0FEF74AF9C9E7FEF759F9C6E70A
:103F000004A8FDF78FF90598C1E701A8FDF76AFA43
:103F10000298BCE719688906B9D51968C1F3C101CF
:103F2000C840B4E76046B2E74846B0E70125012043
:103F3000683460802080A760E76007B02846BDE84D
:103F4000F0832DE9F04704460E4617469846089D33
:103F50004FF0000A4FF020093BE0681C39D0FDF714
:103F60004FF8A0EB0800A84221D805B320680168EB
:103F700049072ED5C069C04300052AD421684FF4F3
:103F8000006008622068016821F4D0710160206837
:103F9000816821F001018160C4F88490C4F88890A0
:103FA000C4F88C9084F880A00320BDE8F0872068D6
:103FB000016821F4D07101602068816821F001015D
:103FC0008160C4F88490C4F8889084F880A00320AD
:103FD000EBE72068C06936EA000004D00020B84250
:103FE000BBD00020E1E70120F9E70000014800F024
:103FF00009B800001C010020014800F003B80000CF
:10400000480900202DE9F04104462068C56906688A
:1040100081684FF00007A90615D5406AC0B2E28A50
:10402000A1688854E18A491C8AB2E282E1898A4205
:1040300000D3E782628B8A4202D2618B491C618382
:10404000616A01B18847280617D5300615D5A08AC0
:10405000002863D0012084F82800618A6068405CF1
:1040600021688862608A401C80B26082A18988428F
:1040700000D36782A08A401EA082680613D570060E
:1040800011D5A08AF0B3618A6068405C21688862BB
:10409000608A401C80B26082A189884200D3678216
:1040A000A08A401EA0822068016A41F001010162DD
:1040B0002068016A41F0020101622068016A41F052
:1040C000040101622068016A41F008010162206870
:1040D000016A41F0100101622068016A41F040016B
:1040E00001622068016A41F4807101622068016AFE
:1040F00041F4007101622068016A41F400310162FB
:10410000206800E015E0016A41F480110162206836
:10411000016A41F020010162BDE8F0812068016878
:1041200021F0800101602068016841F040010160D8
:10413000A3E72068016821F040010160206A00B116
:10414000804784F82870AEE778B5002317E0CC5C90
:10415000068A4568AC55012484F31088048A641CDF
:10416000A4B204828589AC4201D300240482848AEB
:10417000641C8482002484F310885B1C9BB29342ED
:104180000CD319E0BDF80050AC4207D10468256893
:104190002D0603D4256845F080052560012484F3AD
:1041A0001088848A0094002484F310888489BDF8E0
:1041B0000050AC42E6D9CAE70068016841F08001CE
:1041C000016078BD1A491948086001F12C00486067
:1041D00000F5806088604FF480628A81CA81002087
:1041E00008824882C882088348838882C86108623E
:1041F000486281F8280001F62C010E4B0B6001F19A
:104200002C034B6001F22C438B608A81CA810882A7
:104210004882C882088348838882074ACA61074A5D
:104220000A62074A4A6281F828007047001001407C
:104230001C01002000480040B5350008C1350008C9
:10424000B1350008FEE700000FB4054B10B503A917
:10425000044A029800F0EAF810BC5DF814FB000074
:1042600033520008380000200907090E002804DB3B
:1042700000F1E02080F80014704700F00F0000F11A
:10428000E02080F8141D704702E008C8121F08C122
:10429000002AFAD170477047002001E001C1121FC7
:1042A000002AFBD1704700002DE9FF5F82B000219A
:1042B000DDE90430020DDDF840B0034318D044F6C8
:1042C0001050A2F2FF3242431514119801281FD05A
:1042D000A5EB0B00401C5FEA000A4FF000064E4FB2
:1042E000DFF83891B046504615D5CAF1000413E006
:1042F000119801244AA3012801D16FEA0B01029809
:10430000119AC0E90031C0E9024206B0BDE8F09F51
:10431000CBF10000DFE704460021404A491842EB98
:104320000450CDE9001012E0E00707D032463B46CA
:1043300040464946FCF72EF98046894632463B46C0
:1043400010461946FCF726F906460F466410002C65
:10435000EAD1DDE90401DDE90023BAF1000F06DA54
:10436000FCF718F942464B46FCF714F905E0FCF758
:1043700083F942464B46FCF77FF904460E4600227D
:10438000284BFCF701FA03D84FF0FF30014607E055
:104390000022254B20463146FCF755F8FCF7DBF9A7
:1043A000102409E0002C0ADB0A220023FBF790FF0F
:1043B000039B30321A55641E50EA0102F2D1641C8C
:1043C000039AC4F111031444119A012A03D0012263
:1043D00008430DD10AE0084304D000204FF0110B30
:1043E000119072E7A3EB0B056D1E0DE05B4504DD3C
:1043F0004FF0000205F1010504E003DA4FF000027E
:10440000A5F10105002AECD002981199C0E902310A
:10441000C0E9004579E70000000014400000F03FCB
:10442000300000000000F0430000E03F2DE9FF4FA6
:1044300095B09B468946064600250FE2252877D190
:1044400000242746F84A0121059400E0044316F8A9
:10445000013F203B01FA03F01042F7D130782A28BF
:1044600011D06FF02F033078A0F13002092A16D84E
:10447000059A44F0020402EB820203EB420210446C
:10448000761C0590EFE759F8042B0592002A03DA11
:10449000504244F40054059044F00204761C3078F5
:1044A0002E2816D116F8010F44F004042A280DD046
:1044B0006FF02F023078A0F13003092B09D807EBF9
:1044C000870302EB4303C718761CF3E759F8047B14
:1044D000761C30786C280FD006DC4C2817D0682862
:1044E0000DD06A2814D104E0742810D07A280FD196
:1044F0000DE044F400140AE044F4801401E044F4B4
:1045000040147278824202D104F58014761C761C25
:10451000307866280BD013DC582877D009DC0028C7
:1045200075D04528F6D04628F4D047281AD19DE109
:1045300018E0632835D0642879D0652812D195E138
:10454000702873D008DC6728F1D069286FD06E28F6
:104550000DD06F2806D1B5E073282CD0752875D002
:10456000782874D05A46179990476D1C75E1C4F3AA
:104570000250022809D003280DD0D9F800100428D1
:104580000DD00D6009F1040967E1D9F80010EA17B0
:10459000C1E90052F6E7D9F800100D80F2E70D707E
:1045A000F0E719F8041B8DF8001000208DF80100C9
:1045B000EA46012003E059F804AB4FF0FF306107F1
:1045C0004FF0000102D40DE008F101018846B94224
:1045D0000FDA8045F8DB1AF808100029F4D108E05A
:1045E00008F1010188468142FADB1AF80810002917
:1045F000F6D105985B46A0EB080721463846179A86
:1046000000F094FA284400EB080507E04DE029E1AA
:104610000DE01AF8010B5A4617999047B8F10108B6
:10462000F7D25B4621463846179A13E142E00A2248
:104630000092C4F302524FF0000A022A08D059F83F
:1046400004CB032A4FEAEC710AD00DE029E02AE0FE
:1046500009F1070121F00702F2E802C1914609E0E1
:104660000FFA8CFC4FEAEC71042A03D14FFA8CFC50
:104670004FEAEC71002907DA0A460021DCF1000C50
:1046800061EB02012D2202E0220504D52B228DF8D8
:104690000420012203E0E20701D02022F7E7904640
:1046A00059E00A2102E010220DE010214FF0000A2B
:1046B00000910BE010224FF0000A44F00404082798
:1046C000009203E008224FF0000A0092C4F3025265
:1046D000022A05D059F804CB0021032A08D009E0AA
:1046E00009F1070121F00702F2E802C1914605E055
:1046F0001FFA8CFC042A01D10CF0FF0C4FF00008CB
:10470000220728D5702806D0009B83F0100353EAB7
:104710000A0305D00EE040228DF80420012208E0B3
:104720005CEA010206D030228DF804208DF80500E5
:1047300002229046009B83F0080353EA0A030AD141
:104740005CEA010201D1620705D530228DF8042010
:104750004FF001087F1E582804D034A003900EA803
:1047600002900DE036A0F9E753466046009AFBF749
:10477000AFFD84460398825C0298401E029002704E
:104780005CEA0100F0D1029806A9081A00F1200A9B
:10479000600702D524F4803400E00127574502DD8C
:1047A000A7EB0A0000E0002000EB0A01009005984A
:1047B0004144401A0590E00306D45B462146179A0F
:1047C000059800F0B3F90544002706E001A85A4611
:1047D000C05D179990476D1C7F1C4745F6DBE003D1
:1047E0000CD55B462146179A059800F09FF90544C1
:1047F00004E030205A46179990476D1C0099481ED6
:1048000000900029F5DC08E0029802995A460078E9
:10481000491C0291179990476D1CBAF10001AAF149
:10482000010AF1DC65E10000092801003031323372
:1048300034353637383961626364656600000000DC
:1048400030313233343536373839414243444546C6
:104850000000000000F058F90544761C307800286C
:104860007FF4ECAD19B02846BDE8F08F620700D4A4
:10487000062709F1070222F0070CFCE80223E146B3
:1048800003F000485FEA080C02D00FF2702C0DE034
:104890005FEA045C02D50FF2682C07E05FEAC47C93
:1048A00002D00FF2602C01E0AFF2700C4FF0FF3835
:1048B00023F00043CDF850C065280CD006DC452815
:1048C00009D046281DD047283DD13DE0662818D0A4
:1048D00067287ED138E00021112F01DB112000E094
:1048E000781CCDE9000106A90EA8FFF7DDFCDDE983
:1048F0000F010E9A03910021009207F1010A049121
:104900004DE04FF000400097CDE9011006A90EA838
:10491000FFF7CAFCDDE90F0203920E9B11990022FA
:10492000DDF80CA00093049211B9791C00EB010A88
:10493000B7EB0A0004D4C0F1FF3007F1010A04907C
:10494000AAEB0700019044E0012F00DA01270021C3
:10495000112F01DD112000E03846CDE9000106A944
:104960000EA8FFF7A1FCDDE90F010E9A03910021CB
:1049700004910092BA4621070CD40399514500DAFC
:104980008A46BAF1010F05DD009AAAF10101515CD6
:10499000302908D0B84202DA10F1040F06DA0121FA
:1049A000CDE9011015E0AAF10101E9E7002805DCD5
:1049B000049901440491AAEB000102E0411C514515
:1049C00000DD8A460499401A401C01904FF00040D7
:1049D0000290200704D40198504501DBCDF80480F3
:1049E00000208DF84F0002980DF14F07B0F1004FF5
:1049F00025D02B200E9002984FF0020800280CDAE8
:104A0000404202902D200E9007E00A210298FBF709
:104A1000F4FC3031029007F8011DB8F10001A8F153
:104A20000108F2DC02980028EFD1791E0E98087078
:104A3000307800F0200040F0450007F8020D12A881
:104A4000C01B00F107081498007800B1012000EBAA
:104A50000A01019801EBE07105984144401A401E9B
:104A60000590E00306D45B462146179A059800F0AE
:104A70005DF805441498007818B15A461799904784
:104A80006D1CE00324D55B462146179A059800F07B
:104A90004DF805441CE00498002807DBDDE903011C
:104AA000884203DD0098405C179901E01799302097
:104AB0005A469047049805F10105401C049001985E
:104AC000401E019004D12E205A46179990476D1C24
:104AD000BAF10001AAF1010ADDDC05E017F8010BCB
:104AE0005A46179990476D1CB8F10001A8F10108CA
:104AF000F4DC5B462146179A0598ABE62D000000D2
:104B00002B000000200000002DE9F04104460025A4
:104B10001E461746880404D405E039462020B047D5
:104B20006D1C641EF9D52846BDE8F0812DE9F041E1
:104B3000044600251E469046C80301D5302700E0F4
:104B40002027880404D505E041463846B0476D1C4F
:104B5000641EF9D52846BDE8F0810000042801D381
:104B60000020704700EB4001054800EB81004178D0
:104B7000012901D0002070470021417001207047B9
:104B8000EC00002010B5002810D0012800D1022030
:104B9000012181F31088064C60600020207080F3B2
:104BA000108800F081F820780128FAD110BD0000AB
:104BB0000000002070B500214FF0E0256B690B4A22
:104BC0000B4C1268B2FBF4F44443AA69A869904202
:104BD000FCD003D2A2EB0002114403E0A3EB0006D9
:104BE000324411440246A142F0D370BD2C00002093
:104BF00040420F0070B505462A4800EB05142846D0
:104C0000FEF7A6F90522002605EB4503A8B3217996
:104C1000052901D2227170BD0A2902D2491C2171D5
:104C200070BDA07A05EB45056D1C20B90120A0726E
:104C3000E8B200F045FA21890029F1D0E0888842E5
:104C40000BD2401C80B2E08021898842E8D1BDE8C7
:104C50007040DB1CD8B200F033BAE07A0028DFD015
:104C6000207B401CC0B22073E17A8842D8D32673DF
:104C7000E8B2BDE8704000F023BA2079052801D9D8
:104C800022710BE010B1401E207107E0A07A0128CC
:104C900004D1A6729B1CD8B200F012FAE6802673EB
:104CA00070BD00003C000020704710B5FEF7A2F96F
:104CB000FBF77AFFFCF7B2F9FEF7CEFC00F0F2F852
:104CC00000F07CF900F0ACF900F08AF8BDE8104083
:104CD00000F064B92DE9F04186B03C48082101603C
:104CE00080243B490C6004606003DFF8E880C8F86A
:104CF00018008612384806603849086840F00100FC
:104D00000860086800F001000090086840F040006A
:104D10000860086800F040000090086840F0040057
:104D20000860086800F004000090086840F0010086
:104D30000860086800F001000090086840F0040076
:104D40000860086800F004000090086840F0020065
:104D50000860086800F002000090086840F0040055
:104D60000860086800F0040000900120029000250F
:104D70000395022704971020019001A94046FCF7F3
:104D80004DF8019601A914481838FCF747F801942A
:104D900001A90E4E183E3046FCF740F8019401A9D7
:104DA0000B481838FCF73AF8029503950497402011
:104DB000019001A93046FCF731F82020019001A9AB
:104DC0004046FCF72BF806B0BDE8F0811808025801
:104DD000180402580000025818180258E0440258FB
:104DE00010B5FDF703FFFDF7B5FE044840F614715A
:104DF000016000680249086010BD00001C0000202E
:104E00000010006000B595B04C2102A8FBF7EAFA4B
:104E10004FF080411848026842F0010202600068C9
:104E200000F001000190154800684008144AB0FBEA
:104E3000F2F0401E82B24FF0FF30029103920590D3
:104E400000200690049007908020089002A8FDF7AB
:104E5000DEFD20B14FF40C710AA0FBF72DFF0222FA
:104E600000211C20FCF79AF91C20FCF789F902A804
:104E7000FDF7F6FD15B000BDE84402582C000020F7
:104E800040420F002E2E5C2E2E5C557365725C62C4
:104E900073705C7372635C6273705F74696D65726A
:104EA0002E63000010B500F04BF8BDE8104000F094
:104EB00001B8000030B587B01F48016841F0020119
:104EC0000160016801F002010191016841F00401F3
:104ED0000160016801F004010191016841F04001A5
:104EE0000160016801F040010191016841F0800119
:104EF0000160016801F080010191016841F4807155
:104F00000160006800F4807001900020039004901C
:104F1000032005900024094D05EBC4008088029011
:104F200002A955F83400FBF779FF641CE4B2082CA1
:104F3000F2D307B030BD0000E0440258105300081F
:104F400030B5154800228272C272027300216424B7
:104F50000225A0F1A00303EB011004810571827208
:104F6000C2720273491CC9B20A29F4D30622642111
:104F7000032000F0B7F806226421042000F0B2F804
:104F800006226421052000F0ADF80622BDE830407D
:104F90006421104600F0A6B8DC00002010B5012006
:104FA00000F051F8022000F04EF8032000F04BF81A
:104FB000BDE81040042000F046B8000030B40020E6
:104FC000134C002300EB400204EB82014B608B602A
:104FD0004B7004F82230401CC0B20428F2D30D48B4
:104FE0004FF47A710068B0FBF1F0401EB0F1807FA1
:104FF00008D24FF0E0214861F020074A10708B6121
:105000000720086101200549487030BCFFF7FABE4F
:10501000EC0000202C00002023ED00E00000002028
:1050200010B5FFF7CFF8FDF7DBFEBDE81040FEF747
:10503000A1BA10B500242046FFF7DCFD641CE4B2E1
:105040000A2CF8D310BD012809D002280BD0032860
:105050000DD004280FD101214002FDF73DBE0121F2
:105060000802FDF739BE01214802FDF735BE0121D6
:105070008802FDF731BE704710B5012810D0022814
:1050800011D0032812D0042819D144022046FDF77C
:1050900019FE70B12046BDE810400021FDF71CBE8E
:1050A0004FF48074F2E74FF40074EFE74FF480643C
:1050B000ECE72046BDE810400121FDF70DBE10BD14
:1050C0000549CA7A8854C87A401CC0B2C8720A28F6
:1050D00001D30020C8727047DC000020FFF7A9BF91
:1050E00070470000034B03EB00100181C2720021E6
:1050F000017370473C000020F0B5A5B006460F468E
:1051000014461D46902101A8FBF76CF90196029701
:10511000002003900490059407900695089009904C
:105120000B9001A8FDF7DCFC002804D003A040F29E
:105130002631FBF7C1FD25B0F0BD00002E2E5C2E00
:105140002E5C557365725C6273705C7372635C6233
:1051500073705F756172745F6669666F2E630000BD
:10516000416800290AD04168491E416006D10121E9
:1051700041700178012901D18168416070470000C8
:1051800010B5042805D30C4A0CA114A0FFF75CF855
:10519000FEE7012282F31088184B00EB400203EB7C
:1051A00082004160816000214170012003F82200EB
:1051B00081F3108810BD00005F5300082E2E5C2E76
:1051C0002E5C557365725C6273705C7372635C62B3
:1051D00073705F74696D65722E6300004572726F43
:1051E000723A2066696C652025732C2066756E63A3
:1051F00074696F6E20257328290D0A00EC000020C9
:1052000070B50D461646FBF715FD0446002C09D077
:10521000E06900B18047324629462046BDE870402B
:10522000FEF792BF70BD13B5012201A9FFF7E8FF99
:105230001CBD10B504460020E1B2FFF7F4FF204684
:1052400010BD00002DED028B82B0FFF72EFDFDF7A3
:105250003BFFFDF711FF4FF4FA70FFF793FCFFF7E8
:1052600039FD0A210020FBF721FBFBF71DFC002084
:105270004FF47A71FFF784FFFFF716FD0020FFF768
:105280006DFC0028F8D00220FFF7F6FE0024154E32
:10529000154FDFF858809FED168A06EB84004246D2
:1052A0000023456885FB0701FBF743F800EE100A71
:1052B000F8EEC00A80EE880A0EA02A462146B7EE14
:1052C000C00A8DED000BFEF7BFFF032C02D10DA02D
:1052D000FEF7BAFF641CE4B2082CDED30AA0FEF786
:1052E000B3FFC9E774110020A0252600FFFF3F008F
:1052F00000247449434825643D25303764282566D9
:10530000562920000D0A00000D0A0D0A00000000B9
:105310000020025800010000000802580020000090
:10532000001C025810000000001802580400000081
:105330000004025801000000001802580800000094
:1053400000180258800000000020025800080000E9
:105350006273705F537461727454696D6572006238
:1053600073705F53746172744175746F54696D65C5
:1053700072006273705F53746F7054696D65720070
:10538000F0E0D0C0B0A19282726353433320130384
:10539000010002000400060008000A000C001000D2
:1053A0002000400080000001000000000102030412
:1053B0000102030406070809322E20C9CFB5E7BA57
:1053C000F3B2E5C8EB41445331323536C4A3BFE9EB
:1053D000B5BDD3D2C9CFBDC7434E3236A3A8322AFA
:1053E0003650CBABC5C5C4B8A3A92C20B3CCD0F2E2
:1053F000C3BF31C3EBB4F2D3A1D2BBB4CECAFDBE9E
:10540000DD0D0A0024540008000000203C000000CC
:1054100088420008605400083C000020A4210000DD
:10542000984200080000000000000000000000009A
:10543000000000000000000000000000000000006C
:10544000000000000100000010000000000000004B
:105450000090D0030090D003000000000000000086
:040000050800029954
:00000001FF
